{"abi":[{"type":"constructor","inputs":[{"name":"platform_","type":"address","internalType":"address"},{"name":"parseAgentId_","type":"uint256","internalType":"uint256"}],"stateMutability":"nonpayable"},{"type":"function","name":"createMarket","inputs":[{"name":"question","type":"string","internalType":"string"},{"name":"sourceUrl","type":"string","internalType":"string"},{"name":"resolvePrompt","type":"string","internalType":"string"},{"name":"deadline","type":"uint256","internalType":"uint256"}],"outputs":[{"name":"market","type":"address","internalType":"address"}],"stateMutability":"nonpayable"},{"type":"function","name":"getMarket","inputs":[{"name":"id","type":"uint256","internalType":"uint256"}],"outputs":[{"name":"","type":"address","internalType":"address"}],"stateMutability":"view"},{"type":"function","name":"marketCount","inputs":[],"outputs":[{"name":"","type":"uint256","internalType":"uint256"}],"stateMutability":"view"},{"type":"function","name":"markets","inputs":[{"name":"","type":"uint256","internalType":"uint256"}],"outputs":[{"name":"","type":"address","internalType":"contract VerdictMarket"}],"stateMutability":"view"},{"type":"function","name":"parseAgentId","inputs":[],"outputs":[{"name":"","type":"uint256","internalType":"uint256"}],"stateMutability":"view"},{"type":"function","name":"platform","inputs":[],"outputs":[{"name":"","type":"address","internalType":"address"}],"stateMutability":"view"},{"type":"event","name":"MarketCreated","inputs":[{"name":"marketId","type":"uint256","indexed":true,"internalType":"uint256"},{"name":"market","type":"address","indexed":true,"internalType":"address"},{"name":"creator","type":"address","indexed":true,"internalType":"address"}],"anonymous":false}],"bytecode":{"object":"0x60c060405234801561000f575f80fd5b5060405161276b38038061276b83398101604081905261002e91610044565b6001600160a01b0390911660805260a05261007b565b5f8060408385031215610055575f80fd5b82516001600160a01b038116811461006b575f80fd5b6020939093015192949293505050565b60805160a0516126c36100a85f395f81816069015261014201525f818160a3015261012101526126c35ff3fe608060405234801561000f575f80fd5b5060043610610060575f3560e01c8063316fbb30146100645780634bde38c81461009e57806376e00406146100dd578063b1283e77146100f0578063eb44fdd314610103578063ec97908214610116575b5f80fd5b61008b7f000000000000000000000000000000000000000000000000000000000000000081565b6040519081526020015b60405180910390f35b6100c57f000000000000000000000000000000000000000000000000000000000000000081565b6040516001600160a01b039091168152602001610095565b6100c56100eb3660046102ec565b61011d565b6100c56100fe366004610387565b610246565b6100c5610111366004610387565b61026d565b5f5461008b565b5f807f00000000000000000000000000000000000000000000000000000000000000007f000000000000000000000000000000000000000000000000000000000000000030338c8c8c8c8c8c8c6040516101769061029a565b61018a9b9a999897969594939291906103c6565b604051809103905ff0801580156101a3573d5f803e3d5ffd5b505f8054600180820183558280527f290decd9548b62a8d60345a988386fc84ba6bc95484008f6362f93160ef3e56390910180546001600160a01b0319166001600160a01b038516179055815492935090916101ff9190610445565b60405190915033906001600160a01b0384169083907f95e4e118b562056e1f7973af32e7db2b2088136e9b38507e1e9c1d93d0888a9e905f90a45098975050505050505050565b5f8181548110610254575f80fd5b5f918252602090912001546001600160a01b0316905081565b5f8082815481106102805761028061046a565b5f918252602090912001546001600160a01b031692915050565b61220f8061047f83390190565b5f8083601f8401126102b7575f80fd5b50813567ffffffffffffffff8111156102ce575f80fd5b6020830191508360208285010111156102e5575f80fd5b9250929050565b5f805f805f805f6080888a031215610302575f80fd5b873567ffffffffffffffff80821115610319575f80fd5b6103258b838c016102a7565b909950975060208a013591508082111561033d575f80fd5b6103498b838c016102a7565b909750955060408a0135915080821115610361575f80fd5b5061036e8a828b016102a7565b989b979a50959894979596606090950135949350505050565b5f60208284031215610397575f80fd5b5035919050565b81835281816020850137505f828201602090810191909152601f909101601f19169091010190565b6001600160a01b038c81168252602082018c90528a8116604083015289166060820152610100608082018190525f906104028382018a8c61039e565b905082810360a084015261041781888a61039e565b905082810360c084015261042c81868861039e565b9150508260e08301529c9b505050505050505050505050565b8181038181111561046457634e487b7160e01b5f52601160045260245ffd5b92915050565b634e487b7160e01b5f52603260045260245ffdfe60e060405234801562000010575f80fd5b506040516200220f3803806200220f83398101604081905262000033916200018a565b6001600160a01b0388811660805260a088905286811660c052600480546001600160a01b0319169187169190911790555f620000708582620002ea565b5060016200007f8482620002ea565b5060026200008e8382620002ea565b5060035550506004805460ff60a01b1916905550620003b69350505050565b80516001600160a01b0381168114620000c4575f80fd5b919050565b634e487b7160e01b5f52604160045260245ffd5b5f82601f830112620000ed575f80fd5b81516001600160401b03808211156200010a576200010a620000c9565b604051601f8301601f19908116603f01168101908282118183101715620001355762000135620000c9565b816040528381526020925086602085880101111562000152575f80fd5b5f91505b8382101562000175578582018301518183018401529082019062000156565b5f602085830101528094505050505092915050565b5f805f805f805f80610100898b031215620001a3575f80fd5b620001ae89620000ad565b975060208901519650620001c560408a01620000ad565b9550620001d560608a01620000ad565b60808a01519095506001600160401b0380821115620001f2575f80fd5b620002008c838d01620000dd565b955060a08b015191508082111562000216575f80fd5b620002248c838d01620000dd565b945060c08b01519150808211156200023a575f80fd5b50620002498b828c01620000dd565b92505060e089015190509295985092959890939650565b600181811c908216806200027557607f821691505b6020821081036200029457634e487b7160e01b5f52602260045260245ffd5b50919050565b601f821115620002e557805f5260205f20601f840160051c81016020851015620002c15750805b601f840160051c820191505b81811015620002e2575f8155600101620002cd565b50505b505050565b81516001600160401b03811115620003065762000306620000c9565b6200031e8162000317845462000260565b846200029a565b602080601f83116001811462000354575f84156200033c5750858301515b5f19600386901b1c1916600185901b178555620003ae565b5f85815260208120601f198616915b82811015620003845788860151825594840194600190910190840162000363565b5085821015620003a257878501515f19600388901b60f8161c191681555b505060018460011b0185555b505050505050565b60805160a05160c051611e12620003fd5f395f6104b001525f81816102ac015261081101525f818161037d015281816107e2015281816108e90152610f7b0152611e125ff3fe6080604052600436106101b2575f3560e01c80635cd8ca9c116100e7578063ad1bb8cf11610087578063c884ef8311610062578063c884ef83146104d2578063cb1c2b5c14610500578063ccc827951461051a578063ecfb49a31461052f575f80fd5b8063ad1bb8cf1461045d578063c19d93fb14610472578063c45a01551461049f575f80fd5b80637fab9e46116100c25780637fab9e46146103f757806380bcaf581461040a57806395e5dd071461041e578063a627889e14610449575f80fd5b80635cd8ca9c146103b357806362445f13146103ce578063762c3c54146103e3575f80fd5b8063316fbb30116101525780633fad9ae01161012d5780633fad9ae01461032d5780634a0332a0146103415780634bde38c81461036c5780634e71d92d1461039f575f80fd5b8063316fbb301461029b578063387e0801146102ce5780633c652a9a146102ef575f80fd5b806327793f871161018d57806327793f871461023d5780632810e1d61461026a57806329dcb0cf146102725780632fdefd3114610287575f80fd5b80630208d811146101bd57806302d05d3f146101e5578063150920661461021c575f80fd5b366101b957005b5f80fd5b3480156101c8575f80fd5b506101d260065481565b6040519081526020015b60405180910390f35b3480156101f0575f80fd5b50600454610204906001600160a01b031681565b6040516001600160a01b0390911681526020016101dc565b348015610227575f80fd5b50610230610543565b6040516101dc9190611370565b348015610248575f80fd5b5060045461025d90600160a81b900460ff1681565b6040516101dc919061139d565b6101d26105cf565b34801561027d575f80fd5b506101d260035481565b348015610292575f80fd5b506102306108d1565b3480156102a6575f80fd5b506101d27f000000000000000000000000000000000000000000000000000000000000000081565b3480156102d9575f80fd5b506102ed6102e836600461167f565b6108de565b005b3480156102fa575f80fd5b5061031d6103093660046117fc565b600d6020525f908152604090205460ff1681565b60405190151581526020016101dc565b348015610338575f80fd5b50610230610bd0565b34801561034c575f80fd5b506101d261035b366004611813565b600b6020525f908152604090205481565b348015610377575f80fd5b506102047f000000000000000000000000000000000000000000000000000000000000000081565b3480156103aa575f80fd5b506102ed610bdc565b3480156103be575f80fd5b506101d267016345785d8a000081565b3480156103d9575f80fd5b506101d260095481565b3480156103ee575f80fd5b506101d2600381565b6102ed61040536600461182c565b610e1f565b348015610415575f80fd5b506101d2610f65565b348015610429575f80fd5b506101d2610438366004611813565b600a6020525f908152604090205481565b348015610454575f80fd5b50610230611008565b348015610468575f80fd5b506101d260085481565b34801561047d575f80fd5b5060045461049290600160a01b900460ff1681565b6040516101dc919061184b565b3480156104aa575f80fd5b506102047f000000000000000000000000000000000000000000000000000000000000000081565b3480156104dd575f80fd5b5061031d6104ec366004611813565b600c6020525f908152604090205460ff1681565b34801561050b575f80fd5b506101d266038d7ea4c6800081565b348015610525575f80fd5b506101d260075481565b34801561053a575f80fd5b506101d2611015565b600580546105509061185f565b80601f016020809104026020016040519081016040528092919081815260200182805461057c9061185f565b80156105c75780601f1061059e576101008083540402835291602001916105c7565b820191905f5260205f20905b8154815290600101906020018083116105aa57829003601f168201915b505050505081565b5f80600454600160a01b900460ff1660028111156105ef576105ef611389565b1461060d5760405163300b4e3360e21b815260040160405180910390fd5b60035442101561063057604051631bf5519360e01b815260040160405180910390fd5b6004805460ff60a01b1916600160a01b179055604080516003808252608082019092525f91602082015b606081526020019060019003908161065a5790505090506040518060400160405280600381526020016259455360e81b815250815f8151811061069f5761069f611897565b6020026020010181905250604051806040016040528060028152602001614e4f60f01b815250816001815181106106d8576106d8611897565b6020026020010181905250604051806040016040528060078152602001661253959053125160ca1b8152508160028151811061071657610716611897565b60200260200101819052505f80600260405160200161073692919061191a565b60405160208183030381529060405290505f63bb2cde4660e01b838360015f600160405160240161076b959493929190611a21565b60408051601f198184030181529190526020810180516001600160e01b03166001600160e01b03199093169290921790915290505f6107a8610f65565b9050803410156107cb576040516370d4654f60e11b815260040160405180910390fd5b6040516345de5df160e11b81526001600160a01b037f00000000000000000000000000000000000000000000000000000000000000001690638bbcbbe2903490610846907f000000000000000000000000000000000000000000000000000000000000000090309063387e080160e01b908990600401611b25565b60206040518083038185885af1158015610862573d5f803e3d5ffd5b50505050506040513d601f19601f820116820180604052508101906108879190611b5e565b5f818152600d6020526040808220805460ff191660011790555191965086917fdfdd57544a98001855c9d3a6d9ce0e8bdc97706ab6544f2ac9bb432c61c3fae69190a25050505090565b600180546105509061185f565b336001600160a01b037f0000000000000000000000000000000000000000000000000000000000000000161461092757604051631ae8227960e11b815260040160405180910390fd5b5f848152600d602052604090205460ff1661095557604051636d08029760e01b815260040160405180910390fd5b5f848152600d60205260409020805460ff191690556001600454600160a01b900460ff16600281111561098a5761098a611389565b146109a85760405163773cf0b160e01b815260040160405180910390fd5b6007546006546109b89190611b89565b60085560028260048111156109cf576109cf611389565b1415806109db57508251155b15610a8a576004805460ff60a81b1916600360a81b17905560408051606081019091526021808252611dbc6020830139600590610a189082611be8565b505f6009556004805460ff60a01b1916600160a11b1790819055600160a81b900460ff166003811115610a4d57610a4d611389565b7f24682a824da4fe4f6c97224a20a0c07682d3ebde8fe8b5a983b86ba6877a74356005604051610a7d9190611ca8565b60405180910390a2610bca565b5f835f81518110610a9d57610a9d611897565b602002602001015160200151806020019051810190610abc9190611cba565b90506005610aca8282611be8565b50610ad481611026565b6004805460ff60a81b1916600160a81b836003811115610af657610af6611389565b02179055506001600454600160a81b900460ff166003811115610b1b57610b1b611389565b03610b2b57600654600955610b60565b6002600454600160a81b900460ff166003811115610b4b57610b4b611389565b03610b5b57600754600955610b60565b5f6009555b6004805460ff60a01b1916600160a11b1790819055600160a81b900460ff166003811115610b9057610b90611389565b7f24682a824da4fe4f6c97224a20a0c07682d3ebde8fe8b5a983b86ba6877a74356005604051610bc09190611ca8565b60405180910390a2505b50505050565b5f80546105509061185f565b6002600454600160a01b900460ff166002811115610bfc57610bfc611389565b14610c1a57604051639f4a648960e01b815260040160405180910390fd5b335f908152600c602052604090205460ff1615610c4a57604051630c8d9eab60e31b815260040160405180910390fd5b5f6003600454600160a81b900460ff166003811115610c6b57610c6b611389565b1480610c775750600954155b15610ca857335f908152600b6020908152604080832054600a90925290912054610ca19190611b89565b9050610d32565b5f6001600454600160a81b900460ff166003811115610cc957610cc9611389565b14610ce257335f908152600b6020526040902054610cf2565b335f908152600a60205260409020545b9050805f03610d14576040516312d37ee560e31b815260040160405180910390fd5b600954600854610d249083611d2c565b610d2e9190611d43565b9150505b805f03610d52576040516312d37ee560e31b815260040160405180910390fd5b335f818152600a60209081526040808320839055600b8252808320839055600c909152808220805460ff191660011790555190919083908381818185875af1925050503d805f8114610dbf576040519150601f19603f3d011682016040523d82523d5f602084013e610dc4565b606091505b5050905080610de6576040516312171d8360e31b815260040160405180910390fd5b60405182815233907f5afeca38b2064c23a692c4cf353015d80ab3ecc417b4f893f372690c11fbd9a69060200160405180910390a25050565b5f600454600160a01b900460ff166002811115610e3e57610e3e611389565b14610e5c5760405163300b4e3360e21b815260040160405180910390fd5b6003544210610e7e5760405163387b2e5560e11b815260040160405180910390fd5b66038d7ea4c68000341015610ea65760405163150a67e960e01b815260040160405180910390fd5b8015610eed57335f908152600a602052604081208054349290610eca908490611b89565b925050819055503460065f828254610ee29190611b89565b90915550610f299050565b335f908152600b602052604081208054349290610f0b908490611b89565b925050819055503460075f828254610f239190611b89565b90915550505b6040513481528115159033907f25018ce0ebce86bde75d91d70200992f99ea453578f49b0eef669201fe7b6e9e9060200160405180910390a350565b5f610f79600367016345785d8a0000611d2c565b7f00000000000000000000000000000000000000000000000000000000000000006001600160a01b0316631ffd62fa6040518163ffffffff1660e01b8152600401602060405180830381865afa158015610fd5573d5f803e3d5ffd5b505050506040513d601f19601f82011682018060405250810190610ff99190611b5e565b6110039190611b89565b905090565b600280546105509061185f565b5f6007546006546110039190611b89565b5f61104c826040518060400160405280600381526020016259455360e81b8152506110c8565b1561105957506001919050565b61107d82604051806040016040528060028152602001614e4f60f01b8152506110c8565b1561108a57506002919050565b6110b382604051806040016040528060078152602001661253959053125160ca1b8152506110c8565b156110c057506003919050565b506003919050565b81515f908390839083905b808210801561110657508382815181106110ef576110ef611897565b6020910101516001600160f81b031916600160fd1b145b1561111d578161111581611d62565b9250506110d3565b818111801561115a575083611133600183611d7a565b8151811061114357611143611897565b6020910101516001600160f81b031916600160fd1b145b15611171578061116981611d8d565b91505061111d565b82515f905b80821080156111a9575084828151811061119257611192611897565b6020910101516001600160f81b031916600160fd1b145b156111c057816111b881611d62565b925050611176565b81811180156111fd5750846111d6600183611d7a565b815181106111e6576111e6611897565b6020910101516001600160f81b031916600160fd1b145b15611214578061120c81611d8d565b9150506111c0565b5f61121f8585611d7a565b90505f61122c8484611d7a565b9050808214611245575f985050505050505050506112cf565b5f5b828110156112c1576112818861125d8388611b89565b8151811061126d5761126d611897565b01602001516001600160f81b0319166112d5565b6001600160f81b0319166112998a61125d848b611b89565b6001600160f81b031916146112b9575f99505050505050505050506112cf565b600101611247565b506001985050505050505050505b92915050565b5f604160f81b6001600160f81b03198316108015906113025750602d60f91b6001600160f81b0319831611155b1561131f5761131660f883901c6020611da2565b60f81b92915050565b5090565b5f5b8381101561133d578181015183820152602001611325565b50505f910152565b5f815180845261135c816020860160208601611323565b601f01601f19169290920160200192915050565b602081525f6113826020830184611345565b9392505050565b634e487b7160e01b5f52602160045260245ffd5b60208101600483106113b1576113b1611389565b91905290565b634e487b7160e01b5f52604160045260245ffd5b60405160c0810167ffffffffffffffff811182821017156113ee576113ee6113b7565b60405290565b6040516101e0810167ffffffffffffffff811182821017156113ee576113ee6113b7565b604051601f8201601f1916810167ffffffffffffffff81118282101715611441576114416113b7565b604052919050565b5f67ffffffffffffffff821115611462576114626113b7565b5060051b60200190565b80356001600160a01b0381168114611482575f80fd5b919050565b5f67ffffffffffffffff8211156114a0576114a06113b7565b50601f01601f191660200190565b803560058110611482575f80fd5b5f82601f8301126114cb575f80fd5b813560206114e06114db83611449565b611418565b82815260059290921b840181019181810190868411156114fe575f80fd5b8286015b848110156115ec57803567ffffffffffffffff80821115611521575f80fd5b9088019060c0828b03601f1901811315611539575f80fd5b6115416113cb565b61154c88850161146c565b815260408085013584811115611560575f80fd5b85019350603f84018d13611572575f80fd5b888401356115826114db82611487565b8181528e83838801011115611595575f80fd5b818387018c8301375f8b8383010152808b8501525050606093506115ba8486016114ae565b908201526080848101359382019390935260a08085013593820193909352920135908201528352918301918301611502565b509695505050505050565b80356001600160e01b031981168114611482575f80fd5b5f82601f83011261161d575f80fd5b8135602061162d6114db83611449565b8083825260208201915060208460051b87010193508684111561164e575f80fd5b602086015b848110156115ec576116648161146c565b8352918301918301611653565b803560028110611482575f80fd5b5f805f8060808587031215611692575f80fd5b84359350602085013567ffffffffffffffff808211156116b0575f80fd5b6116bc888389016114bc565b94506116ca604088016114ae565b935060608701359150808211156116df575f80fd5b908601906101e082890312156116f3575f80fd5b6116fb6113f4565b8235815261170b6020840161146c565b602082015261171c6040840161146c565b604082015261172d606084016115f7565b6060820152608083013582811115611743575f80fd5b61174f8a82860161160e565b60808301525060a083013582811115611766575f80fd5b6117728a8286016114bc565b60a08301525060c0838101359082015260e0808401359082015261010080840135908201526101208084013590820152610140808401359082015261016091506117bd8284016114ae565b8282015261018091506117d1828401611671565b918101919091526101a082810135908201526101c09182013591810191909152939692955090935050565b5f6020828403121561180c575f80fd5b5035919050565b5f60208284031215611823575f80fd5b6113828261146c565b5f6020828403121561183c575f80fd5b81358015158114611382575f80fd5b60208101600383106113b1576113b1611389565b600181811c9082168061187357607f821691505b60208210810361189157634e487b7160e01b5f52602260045260245ffd5b50919050565b634e487b7160e01b5f52603260045260245ffd5b5f81546118b78161185f565b600182811680156118cf57600181146118e457611910565b60ff1984168752821515830287019450611910565b855f526020805f205f5b858110156119075781548a8201529084019082016118ee565b50505082870194505b5050505092915050565b69028bab2b9ba34b7b71d160b51b81525f611938600a8301856118ab565b72017102932b9b7b63aba34b7b710393ab6329d1606d1b815261195e60138201856118ab565b7f2e20416e7377657220776974682065786163746c79206f6e65206f663a2059458152712996102727961037b91024a72b20a624a21760711b602082015260320195945050505050565b5f81546119b48161185f565b8085526020600183811680156119d157600181146119eb57611a16565b60ff1985168884015283151560051b880183019550611a16565b865f52825f205f5b85811015611a0e5781548a82018601529083019084016119f3565b890184019650505b505050505092915050565b60e08152600760e0820152666f7574636f6d6560c81b6101008201525f61012060208160208501526019828501527f4d61726b6574207265736f6c7574696f6e206f7574636f6d65000000000000006101408501526101609150818401826040860152809250895180825261018091508186019350818160051b870101915060208b015f5b82811015611ad55761017f19888503018652611ac3848351611345565b95850195935090840190600101611aa6565b5050508481036060860152611aea818a611345565b925050508281036080840152611b0081876119a8565b915050611b1160a083018515159052565b60ff831660c08301525b9695505050505050565b8481526001600160a01b03841660208201526001600160e01b0319831660408201526080606082018190525f90611b1b90830184611345565b5f60208284031215611b6e575f80fd5b5051919050565b634e487b7160e01b5f52601160045260245ffd5b808201808211156112cf576112cf611b75565b601f821115611be357805f5260205f20601f840160051c81016020851015611bc15750805b601f840160051c820191505b81811015611be0575f8155600101611bcd565b50505b505050565b815167ffffffffffffffff811115611c0257611c026113b7565b611c1681611c10845461185f565b84611b9c565b602080601f831160018114611c49575f8415611c325750858301515b5f19600386901b1c1916600185901b178555611ca0565b5f85815260208120601f198616915b82811015611c7757888601518255948401946001909101908401611c58565b5085821015611c9457878501515f19600388901b60f8161c191681555b505060018460011b0185555b505050505050565b602081525f61138260208301846119a8565b5f60208284031215611cca575f80fd5b815167ffffffffffffffff811115611ce0575f80fd5b8201601f81018413611cf0575f80fd5b8051611cfe6114db82611487565b818152856020838501011115611d12575f80fd5b611d23826020830160208601611323565b95945050505050565b80820281158282048414176112cf576112cf611b75565b5f82611d5d57634e487b7160e01b5f52601260045260245ffd5b500490565b5f60018201611d7357611d73611b75565b5060010190565b818103818111156112cf576112cf611b75565b5f81611d9b57611d9b611b75565b505f190190565b60ff81811683821601908111156112cf576112cf611b7556fe4167656e742072657175657374206661696c6564206f722074696d6564206f7574a2646970667358221220d3c182ef7658df21c880c6936db7a6c854ae283ca13e0b8dd8a0d0fdb05033df64736f6c63430008180033a264697066735822122008533536d08e56faac96d02f124ee2da08c3341809bbc19eef2b7e87c0f9044464736f6c63430008180033","linkReferences":{}},"methodIdentifiers":{"createMarket(string,string,string,uint256)":"76e00406","getMarket(uint256)":"eb44fdd3","marketCount()":"ec979082","markets(uint256)":"b1283e77","parseAgentId()":"316fbb30","platform()":"4bde38c8"},"id":19}