{"abi":[{"type":"constructor","inputs":[{"name":"platform_","type":"address","internalType":"address"},{"name":"parseAgentId_","type":"uint256","internalType":"uint256"}],"stateMutability":"nonpayable"},{"type":"function","name":"createMarket","inputs":[{"name":"question","type":"string","internalType":"string"},{"name":"sourceUrl","type":"string","internalType":"string"},{"name":"resolvePrompt","type":"string","internalType":"string"},{"name":"deadline","type":"uint256","internalType":"uint256"}],"outputs":[{"name":"market","type":"address","internalType":"address"}],"stateMutability":"nonpayable"},{"type":"function","name":"getMarket","inputs":[{"name":"id","type":"uint256","internalType":"uint256"}],"outputs":[{"name":"","type":"address","internalType":"address"}],"stateMutability":"view"},{"type":"function","name":"marketCount","inputs":[],"outputs":[{"name":"","type":"uint256","internalType":"uint256"}],"stateMutability":"view"},{"type":"function","name":"markets","inputs":[{"name":"","type":"uint256","internalType":"uint256"}],"outputs":[{"name":"","type":"address","internalType":"contract VerdictMarket"}],"stateMutability":"view"},{"type":"function","name":"parseAgentId","inputs":[],"outputs":[{"name":"","type":"uint256","internalType":"uint256"}],"stateMutability":"view"},{"type":"function","name":"platform","inputs":[],"outputs":[{"name":"","type":"address","internalType":"address"}],"stateMutability":"view"},{"type":"event","name":"MarketCreated","inputs":[{"name":"marketId","type":"uint256","indexed":true,"internalType":"uint256"},{"name":"market","type":"address","indexed":true,"internalType":"address"},{"name":"creator","type":"address","indexed":true,"internalType":"address"}],"anonymous":false}],"bytecode":{"object":"0x60c060405234801561000f575f80fd5b50604051612a18380380612a1883398101604081905261002e91610044565b6001600160a01b0390911660805260a05261007b565b5f8060408385031215610055575f80fd5b82516001600160a01b038116811461006b575f80fd5b6020939093015192949293505050565b60805160a0516129706100a85f395f81816069015261014201525f818160a3015261012101526129705ff3fe608060405234801561000f575f80fd5b5060043610610060575f3560e01c8063316fbb30146100645780634bde38c81461009e57806376e00406146100dd578063b1283e77146100f0578063eb44fdd314610103578063ec97908214610116575b5f80fd5b61008b7f000000000000000000000000000000000000000000000000000000000000000081565b6040519081526020015b60405180910390f35b6100c57f000000000000000000000000000000000000000000000000000000000000000081565b6040516001600160a01b039091168152602001610095565b6100c56100eb3660046102ec565b61011d565b6100c56100fe366004610387565b610246565b6100c5610111366004610387565b61026d565b5f5461008b565b5f807f00000000000000000000000000000000000000000000000000000000000000007f000000000000000000000000000000000000000000000000000000000000000030338c8c8c8c8c8c8c6040516101769061029a565b61018a9b9a999897969594939291906103c6565b604051809103905ff0801580156101a3573d5f803e3d5ffd5b505f8054600180820183558280527f290decd9548b62a8d60345a988386fc84ba6bc95484008f6362f93160ef3e56390910180546001600160a01b0319166001600160a01b038516179055815492935090916101ff9190610445565b60405190915033906001600160a01b0384169083907f95e4e118b562056e1f7973af32e7db2b2088136e9b38507e1e9c1d93d0888a9e905f90a45098975050505050505050565b5f8181548110610254575f80fd5b5f918252602090912001546001600160a01b0316905081565b5f8082815481106102805761028061046a565b5f918252602090912001546001600160a01b031692915050565b6124bc8061047f83390190565b5f8083601f8401126102b7575f80fd5b50813567ffffffffffffffff8111156102ce575f80fd5b6020830191508360208285010111156102e5575f80fd5b9250929050565b5f805f805f805f6080888a031215610302575f80fd5b873567ffffffffffffffff80821115610319575f80fd5b6103258b838c016102a7565b909950975060208a013591508082111561033d575f80fd5b6103498b838c016102a7565b909750955060408a0135915080821115610361575f80fd5b5061036e8a828b016102a7565b989b979a50959894979596606090950135949350505050565b5f60208284031215610397575f80fd5b5035919050565b81835281816020850137505f828201602090810191909152601f909101601f19169091010190565b6001600160a01b038c81168252602082018c90528a8116604083015289166060820152610100608082018190525f906104028382018a8c61039e565b905082810360a084015261041781888a61039e565b905082810360c084015261042c81868861039e565b9150508260e08301529c9b505050505050505050505050565b8181038181111561046457634e487b7160e01b5f52601160045260245ffd5b92915050565b634e487b7160e01b5f52603260045260245ffdfe60e060405234801562000010575f80fd5b50604051620024bc380380620024bc83398101604081905262000033916200018a565b6001600160a01b0388811660805260a088905286811660c052600480546001600160a01b0319169187169190911790555f620000708582620002ea565b5060016200007f8482620002ea565b5060026200008e8382620002ea565b5060035550506004805460ff60a01b1916905550620003b69350505050565b80516001600160a01b0381168114620000c4575f80fd5b919050565b634e487b7160e01b5f52604160045260245ffd5b5f82601f830112620000ed575f80fd5b81516001600160401b03808211156200010a576200010a620000c9565b604051601f8301601f19908116603f01168101908282118183101715620001355762000135620000c9565b816040528381526020925086602085880101111562000152575f80fd5b5f91505b8382101562000175578582018301518183018401529082019062000156565b5f602085830101528094505050505092915050565b5f805f805f805f80610100898b031215620001a3575f80fd5b620001ae89620000ad565b975060208901519650620001c560408a01620000ad565b9550620001d560608a01620000ad565b60808a01519095506001600160401b0380821115620001f2575f80fd5b620002008c838d01620000dd565b955060a08b015191508082111562000216575f80fd5b620002248c838d01620000dd565b945060c08b01519150808211156200023a575f80fd5b50620002498b828c01620000dd565b92505060e089015190509295985092959890939650565b600181811c908216806200027557607f821691505b6020821081036200029457634e487b7160e01b5f52602260045260245ffd5b50919050565b601f821115620002e557805f5260205f20601f840160051c81016020851015620002c15750805b601f840160051c820191505b81811015620002e2575f8155600101620002cd565b50505b505050565b81516001600160401b03811115620003065762000306620000c9565b6200031e8162000317845462000260565b846200029a565b602080601f83116001811462000354575f84156200033c5750858301515b5f19600386901b1c1916600185901b178555620003ae565b5f85815260208120601f198616915b82811015620003845788860151825594840194600190910190840162000363565b5085821015620003a257878501515f19600388901b60f8161c191681555b505060018460011b0185555b505050505050565b60805160a05160c0516120bf620003fd5f395f61050501525f81816102d8015261089401525f81816103a901528181610865015281816109ed015261107f01526120bf5ff3fe6080604052600436106101de575f3560e01c8063762c3c54116100fd578063c19d93fb11610092578063ccc8279511610062578063ccc827951461056f578063e021fe4714610584578063ecfb49a314610599578063ffe14b95146105ad575f80fd5b8063c19d93fb146104c7578063c45a0155146104f4578063c884ef8314610527578063cb1c2b5c14610555575f80fd5b806395e5dd07116100cd57806395e5dd071461045f578063a627889e1461048a578063ad1bb8cf1461049e578063b9d14107146104b3575f80fd5b8063762c3c541461040f57806376a7f3e5146104235780637fab9e461461043857806380bcaf581461044b575f80fd5b8063387e0801116101735780634bde38c8116101435780634bde38c8146103985780634e71d92d146103cb5780635cd8ca9c146103df57806362445f13146103fa575f80fd5b8063387e0801146102fa5780633c652a9a1461031b5780633fad9ae0146103595780634a0332a01461036d575f80fd5b80632810e1d6116101ae5780632810e1d61461029657806329dcb0cf1461029e5780632fdefd31146102b3578063316fbb30146102c7575f80fd5b80630208d811146101e957806302d05d3f14610211578063150920661461024857806327793f8714610269575f80fd5b366101e557005b5f80fd5b3480156101f4575f80fd5b506101fe60085481565b6040519081526020015b60405180910390f35b34801561021c575f80fd5b50600454610230906001600160a01b031681565b6040516001600160a01b039091168152602001610208565b348015610253575f80fd5b5061025c6105c2565b60405161020891906115e7565b348015610274575f80fd5b5060045461028990600160a81b900460ff1681565b6040516102089190611614565b6101fe61064e565b3480156102a9575f80fd5b506101fe60035481565b3480156102be575f80fd5b5061025c6109d5565b3480156102d2575f80fd5b506101fe7f000000000000000000000000000000000000000000000000000000000000000081565b348015610305575f80fd5b506103196103143660046118f6565b6109e2565b005b348015610326575f80fd5b50610349610335366004611a73565b600f6020525f908152604090205460ff1681565b6040519015158152602001610208565b348015610364575f80fd5b5061025c610cd4565b348015610378575f80fd5b506101fe610387366004611a8a565b600d6020525f908152604090205481565b3480156103a3575f80fd5b506102307f000000000000000000000000000000000000000000000000000000000000000081565b3480156103d6575f80fd5b50610319610ce0565b3480156103ea575f80fd5b506101fe67016345785d8a000081565b348015610405575f80fd5b506101fe600b5481565b34801561041a575f80fd5b506101fe600381565b34801561042e575f80fd5b506101fe60065481565b610319610446366004611aa3565b610f23565b348015610456575f80fd5b506101fe611069565b34801561046a575f80fd5b506101fe610479366004611a8a565b600c6020525f908152604090205481565b348015610495575f80fd5b5061025c61110c565b3480156104a9575f80fd5b506101fe600a5481565b3480156104be575f80fd5b50610319611119565b3480156104d2575f80fd5b506004546104e790600160a01b900460ff1681565b6040516102089190611ac2565b3480156104ff575f80fd5b506102307f000000000000000000000000000000000000000000000000000000000000000081565b348015610532575f80fd5b50610349610541366004611a8a565b600e6020525f908152604090205460ff1681565b348015610560575f80fd5b506101fe66038d7ea4c6800081565b34801561057a575f80fd5b506101fe60095481565b34801561058f575f80fd5b506101fe60075481565b3480156105a4575f80fd5b506101fe61128c565b3480156105b8575f80fd5b506101fe611c2081565b600580546105cf90611ad6565b80601f01602080910402602001604051908101604052809291908181526020018280546105fb90611ad6565b80156106465780601f1061061d57610100808354040283529160200191610646565b820191905f5260205f20905b81548152906001019060200180831161062957829003601f168201915b505050505081565b5f80600454600160a01b900460ff16600281111561066e5761066e611600565b1461068c5760405163300b4e3360e21b815260040160405180910390fd5b6003544210156106af57604051631bf5519360e01b815260040160405180910390fd5b6004805460ff60a01b1916600160a01b17905542600655604080516003808252608082019092525f91602082015b60608152602001906001900390816106dd5790505090506040518060400160405280600381526020016259455360e81b815250815f8151811061072257610722611b0e565b6020026020010181905250604051806040016040528060028152602001614e4f60f01b8152508160018151811061075b5761075b611b0e565b6020026020010181905250604051806040016040528060078152602001661253959053125160ca1b8152508160028151811061079957610799611b0e565b60200260200101819052505f8060026040516020016107b9929190611b91565b60405160208183030381529060405290505f63bb2cde4660e01b838360015f60016040516024016107ee959493929190611c98565b60408051601f198184030181529190526020810180516001600160e01b03166001600160e01b03199093169290921790915290505f61082b611069565b90508034101561084e576040516370d4654f60e11b815260040160405180910390fd5b6040516345de5df160e11b81526001600160a01b037f00000000000000000000000000000000000000000000000000000000000000001690638bbcbbe29083906108c9907f000000000000000000000000000000000000000000000000000000000000000090309063387e080160e01b908990600401611d9c565b60206040518083038185885af11580156108e5573d5f803e3d5ffd5b50505050506040513d601f19601f8201168201806040525081019061090a9190611dd5565b60078190555f818152600f6020526040808220805460ff191660011790555191965086917fdfdd57544a98001855c9d3a6d9ce0e8bdc97706ab6544f2ac9bb432c61c3fae69190a25f61095d8234611e00565b905080156109cd576040515f90339083908381818185875af1925050503d805f81146109a4576040519150601f19603f3d011682016040523d82523d5f602084013e6109a9565b606091505b50509050806109cb576040516312171d8360e31b815260040160405180910390fd5b505b505050505090565b600180546105cf90611ad6565b336001600160a01b037f00000000000000000000000000000000000000000000000000000000000000001614610a2b57604051631ae8227960e11b815260040160405180910390fd5b5f848152600f602052604090205460ff16610a5957604051636d08029760e01b815260040160405180910390fd5b5f848152600f60205260409020805460ff191690556001600454600160a01b900460ff166002811115610a8e57610a8e611600565b14610aac5760405163773cf0b160e01b815260040160405180910390fd5b600954600854610abc9190611e13565b600a556002826004811115610ad357610ad3611600565b141580610adf57508251155b15610b8e576004805460ff60a81b1916600360a81b179055604080516060810190915260218082526120696020830139600590610b1c9082611e72565b505f600b556004805460ff60a01b1916600160a11b1790819055600160a81b900460ff166003811115610b5157610b51611600565b7f24682a824da4fe4f6c97224a20a0c07682d3ebde8fe8b5a983b86ba6877a74356005604051610b819190611f32565b60405180910390a2610cce565b5f835f81518110610ba157610ba1611b0e565b602002602001015160200151806020019051810190610bc09190611f44565b90506005610bce8282611e72565b50610bd88161129d565b6004805460ff60a81b1916600160a81b836003811115610bfa57610bfa611600565b02179055506001600454600160a81b900460ff166003811115610c1f57610c1f611600565b03610c2f57600854600b55610c64565b6002600454600160a81b900460ff166003811115610c4f57610c4f611600565b03610c5f57600954600b55610c64565b5f600b555b6004805460ff60a01b1916600160a11b1790819055600160a81b900460ff166003811115610c9457610c94611600565b7f24682a824da4fe4f6c97224a20a0c07682d3ebde8fe8b5a983b86ba6877a74356005604051610cc49190611f32565b60405180910390a2505b50505050565b5f80546105cf90611ad6565b6002600454600160a01b900460ff166002811115610d0057610d00611600565b14610d1e57604051639f4a648960e01b815260040160405180910390fd5b335f908152600e602052604090205460ff1615610d4e57604051630c8d9eab60e31b815260040160405180910390fd5b5f6003600454600160a81b900460ff166003811115610d6f57610d6f611600565b1480610d7b5750600b54155b15610dac57335f908152600d6020908152604080832054600c90925290912054610da59190611e13565b9050610e36565b5f6001600454600160a81b900460ff166003811115610dcd57610dcd611600565b14610de657335f908152600d6020526040902054610df6565b335f908152600c60205260409020545b9050805f03610e18576040516312d37ee560e31b815260040160405180910390fd5b600b54600a54610e289083611fb6565b610e329190611fcd565b9150505b805f03610e56576040516312d37ee560e31b815260040160405180910390fd5b335f818152600c60209081526040808320839055600d8252808320839055600e909152808220805460ff191660011790555190919083908381818185875af1925050503d805f8114610ec3576040519150601f19603f3d011682016040523d82523d5f602084013e610ec8565b606091505b5050905080610eea576040516312171d8360e31b815260040160405180910390fd5b60405182815233907f5afeca38b2064c23a692c4cf353015d80ab3ecc417b4f893f372690c11fbd9a69060200160405180910390a25050565b5f600454600160a01b900460ff166002811115610f4257610f42611600565b14610f605760405163300b4e3360e21b815260040160405180910390fd5b6003544210610f825760405163387b2e5560e11b815260040160405180910390fd5b66038d7ea4c68000341015610faa5760405163150a67e960e01b815260040160405180910390fd5b8015610ff157335f908152600c602052604081208054349290610fce908490611e13565b925050819055503460085f828254610fe69190611e13565b9091555061102d9050565b335f908152600d60205260408120805434929061100f908490611e13565b925050819055503460095f8282546110279190611e13565b90915550505b6040513481528115159033907f25018ce0ebce86bde75d91d70200992f99ea453578f49b0eef669201fe7b6e9e9060200160405180910390a350565b5f61107d600367016345785d8a0000611fb6565b7f00000000000000000000000000000000000000000000000000000000000000006001600160a01b0316631ffd62fa6040518163ffffffff1660e01b8152600401602060405180830381865afa1580156110d9573d5f803e3d5ffd5b505050506040513d601f19601f820116820180604052508101906110fd9190611dd5565b6111079190611e13565b905090565b600280546105cf90611ad6565b6001600454600160a01b900460ff16600281111561113957611139611600565b146111575760405163773cf0b160e01b815260040160405180910390fd5b611c206006546111679190611e13565b421015611187576040516372c6d07b60e11b815260040160405180910390fd5b60075480156111a6575f818152600f60205260409020805460ff191690555b6009546008546111b69190611e13565b600a556004805460ff60a81b1916600360a81b1790556040805160608101909152603680825261203360208301396005906111f19082611e72565b505f600b8190556004805460ff60a01b1916600160a11b17905560405182917fec8bd44a6abebd37007561cdcedc2143b43847a237858bd3b68aff20e0fd1da291a2600454600160a81b900460ff16600381111561125157611251611600565b7f24682a824da4fe4f6c97224a20a0c07682d3ebde8fe8b5a983b86ba6877a743560056040516112819190611f32565b60405180910390a250565b5f6009546008546111079190611e13565b5f6112c3826040518060400160405280600381526020016259455360e81b81525061133f565b156112d057506001919050565b6112f482604051806040016040528060028152602001614e4f60f01b81525061133f565b1561130157506002919050565b61132a82604051806040016040528060078152602001661253959053125160ca1b81525061133f565b1561133757506003919050565b506003919050565b81515f908390839083905b808210801561137d575083828151811061136657611366611b0e565b6020910101516001600160f81b031916600160fd1b145b15611394578161138c81611fec565b92505061134a565b81811180156113d15750836113aa600183611e00565b815181106113ba576113ba611b0e565b6020910101516001600160f81b031916600160fd1b145b156113e857806113e081612004565b915050611394565b82515f905b8082108015611420575084828151811061140957611409611b0e565b6020910101516001600160f81b031916600160fd1b145b15611437578161142f81611fec565b9250506113ed565b818111801561147457508461144d600183611e00565b8151811061145d5761145d611b0e565b6020910101516001600160f81b031916600160fd1b145b1561148b578061148381612004565b915050611437565b5f6114968585611e00565b90505f6114a38484611e00565b90508082146114bc575f98505050505050505050611546565b5f5b82811015611538576114f8886114d48388611e13565b815181106114e4576114e4611b0e565b01602001516001600160f81b03191661154c565b6001600160f81b0319166115108a6114d4848b611e13565b6001600160f81b03191614611530575f9950505050505050505050611546565b6001016114be565b506001985050505050505050505b92915050565b5f604160f81b6001600160f81b03198316108015906115795750602d60f91b6001600160f81b0319831611155b156115965761158d60f883901c6020612019565b60f81b92915050565b5090565b5f5b838110156115b457818101518382015260200161159c565b50505f910152565b5f81518084526115d381602086016020860161159a565b601f01601f19169290920160200192915050565b602081525f6115f960208301846115bc565b9392505050565b634e487b7160e01b5f52602160045260245ffd5b602081016004831061162857611628611600565b91905290565b634e487b7160e01b5f52604160045260245ffd5b60405160c0810167ffffffffffffffff811182821017156116655761166561162e565b60405290565b6040516101e0810167ffffffffffffffff811182821017156116655761166561162e565b604051601f8201601f1916810167ffffffffffffffff811182821017156116b8576116b861162e565b604052919050565b5f67ffffffffffffffff8211156116d9576116d961162e565b5060051b60200190565b80356001600160a01b03811681146116f9575f80fd5b919050565b5f67ffffffffffffffff8211156117175761171761162e565b50601f01601f191660200190565b8035600581106116f9575f80fd5b5f82601f830112611742575f80fd5b81356020611757611752836116c0565b61168f565b82815260059290921b84018101918181019086841115611775575f80fd5b8286015b8481101561186357803567ffffffffffffffff80821115611798575f80fd5b9088019060c0828b03601f19018113156117b0575f80fd5b6117b8611642565b6117c38885016116e3565b8152604080850135848111156117d7575f80fd5b85019350603f84018d136117e9575f80fd5b888401356117f9611752826116fe565b8181528e8383880101111561180c575f80fd5b818387018c8301375f8b8383010152808b850152505060609350611831848601611725565b908201526080848101359382019390935260a08085013593820193909352920135908201528352918301918301611779565b509695505050505050565b80356001600160e01b0319811681146116f9575f80fd5b5f82601f830112611894575f80fd5b813560206118a4611752836116c0565b8083825260208201915060208460051b8701019350868411156118c5575f80fd5b602086015b84811015611863576118db816116e3565b83529183019183016118ca565b8035600281106116f9575f80fd5b5f805f8060808587031215611909575f80fd5b84359350602085013567ffffffffffffffff80821115611927575f80fd5b61193388838901611733565b945061194160408801611725565b93506060870135915080821115611956575f80fd5b908601906101e0828903121561196a575f80fd5b61197261166b565b82358152611982602084016116e3565b6020820152611993604084016116e3565b60408201526119a46060840161186e565b60608201526080830135828111156119ba575f80fd5b6119c68a828601611885565b60808301525060a0830135828111156119dd575f80fd5b6119e98a828601611733565b60a08301525060c0838101359082015260e080840135908201526101008084013590820152610120808401359082015261014080840135908201526101609150611a34828401611725565b828201526101809150611a488284016118e8565b918101919091526101a082810135908201526101c09182013591810191909152939692955090935050565b5f60208284031215611a83575f80fd5b5035919050565b5f60208284031215611a9a575f80fd5b6115f9826116e3565b5f60208284031215611ab3575f80fd5b813580151581146115f9575f80fd5b602081016003831061162857611628611600565b600181811c90821680611aea57607f821691505b602082108103611b0857634e487b7160e01b5f52602260045260245ffd5b50919050565b634e487b7160e01b5f52603260045260245ffd5b5f8154611b2e81611ad6565b60018281168015611b465760018114611b5b57611b87565b60ff1984168752821515830287019450611b87565b855f526020805f205f5b85811015611b7e5781548a820152908401908201611b65565b50505082870194505b5050505092915050565b69028bab2b9ba34b7b71d160b51b81525f611baf600a830185611b22565b72017102932b9b7b63aba34b7b710393ab6329d1606d1b8152611bd56013820185611b22565b7f2e20416e7377657220776974682065786163746c79206f6e65206f663a2059458152712996102727961037b91024a72b20a624a21760711b602082015260320195945050505050565b5f8154611c2b81611ad6565b808552602060018381168015611c485760018114611c6257611c8d565b60ff1985168884015283151560051b880183019550611c8d565b865f52825f205f5b85811015611c855781548a8201860152908301908401611c6a565b890184019650505b505050505092915050565b60e08152600760e0820152666f7574636f6d6560c81b6101008201525f61012060208160208501526019828501527f4d61726b6574207265736f6c7574696f6e206f7574636f6d65000000000000006101408501526101609150818401826040860152809250895180825261018091508186019350818160051b870101915060208b015f5b82811015611d4c5761017f19888503018652611d3a8483516115bc565b95850195935090840190600101611d1d565b5050508481036060860152611d61818a6115bc565b925050508281036080840152611d778187611c1f565b915050611d8860a083018515159052565b60ff831660c08301525b9695505050505050565b8481526001600160a01b03841660208201526001600160e01b0319831660408201526080606082018190525f90611d92908301846115bc565b5f60208284031215611de5575f80fd5b5051919050565b634e487b7160e01b5f52601160045260245ffd5b8181038181111561154657611546611dec565b8082018082111561154657611546611dec565b601f821115611e6d57805f5260205f20601f840160051c81016020851015611e4b5750805b601f840160051c820191505b81811015611e6a575f8155600101611e57565b50505b505050565b815167ffffffffffffffff811115611e8c57611e8c61162e565b611ea081611e9a8454611ad6565b84611e26565b602080601f831160018114611ed3575f8415611ebc5750858301515b5f19600386901b1c1916600185901b178555611f2a565b5f85815260208120601f198616915b82811015611f0157888601518255948401946001909101908401611ee2565b5085821015611f1e57878501515f19600388901b60f8161c191681555b505060018460011b0185555b505050505050565b602081525f6115f96020830184611c1f565b5f60208284031215611f54575f80fd5b815167ffffffffffffffff811115611f6a575f80fd5b8201601f81018413611f7a575f80fd5b8051611f88611752826116fe565b818152856020838501011115611f9c575f80fd5b611fad82602083016020860161159a565b95945050505050565b808202811582820484141761154657611546611dec565b5f82611fe757634e487b7160e01b5f52601260045260245ffd5b500490565b5f60018201611ffd57611ffd611dec565b5060010190565b5f8161201257612012611dec565b505f190190565b60ff818116838216019081111561154657611546611dec56fe5265736f6c7574696f6e2074696d6564206f75742077616974696e6720666f7220536f6d6e6961206167656e742063616c6c6261636b4167656e742072657175657374206661696c6564206f722074696d6564206f7574a2646970667358221220d02db8475cd331a4cc3561f91a53e5b9ff8f23c2a0450b31770e30660a4650be64736f6c63430008180033a26469706673582212200aa78730f97e7e8c2b36101adca33d8fe208edd29f1b2ee5733d043ce3eb804464736f6c63430008180033","linkReferences":{}},"methodIdentifiers":{"createMarket(string,string,string,uint256)":"76e00406","getMarket(uint256)":"eb44fdd3","marketCount()":"ec979082","markets(uint256)":"b1283e77","parseAgentId()":"316fbb30","platform()":"4bde38c8"},"id":19}