{"abi":[{"type":"constructor","inputs":[{"name":"platform_","type":"address","internalType":"address"},{"name":"parseAgentId_","type":"uint256","internalType":"uint256"},{"name":"factory_","type":"address","internalType":"address"},{"name":"creator_","type":"address","internalType":"address"},{"name":"question_","type":"string","internalType":"string"},{"name":"sourceUrl_","type":"string","internalType":"string"},{"name":"resolvePrompt_","type":"string","internalType":"string"},{"name":"deadline_","type":"uint256","internalType":"uint256"}],"stateMutability":"nonpayable"},{"type":"receive","stateMutability":"payable"},{"type":"function","name":"MIN_STAKE","inputs":[],"outputs":[{"name":"","type":"uint256","internalType":"uint256"}],"stateMutability":"view"},{"type":"function","name":"PARSE_COST_PER_AGENT","inputs":[],"outputs":[{"name":"","type":"uint256","internalType":"uint256"}],"stateMutability":"view"},{"type":"function","name":"SUBCOMMITTEE_SIZE","inputs":[],"outputs":[{"name":"","type":"uint256","internalType":"uint256"}],"stateMutability":"view"},{"type":"function","name":"agentReasoning","inputs":[],"outputs":[{"name":"","type":"string","internalType":"string"}],"stateMutability":"view"},{"type":"function","name":"claim","inputs":[],"outputs":[],"stateMutability":"nonpayable"},{"type":"function","name":"claimed","inputs":[{"name":"","type":"address","internalType":"address"}],"outputs":[{"name":"","type":"bool","internalType":"bool"}],"stateMutability":"view"},{"type":"function","name":"creator","inputs":[],"outputs":[{"name":"","type":"address","internalType":"address"}],"stateMutability":"view"},{"type":"function","name":"deadline","inputs":[],"outputs":[{"name":"","type":"uint256","internalType":"uint256"}],"stateMutability":"view"},{"type":"function","name":"factory","inputs":[],"outputs":[{"name":"","type":"address","internalType":"address"}],"stateMutability":"view"},{"type":"function","name":"handleResponse","inputs":[{"name":"requestId","type":"uint256","internalType":"uint256"},{"name":"responses","type":"tuple[]","internalType":"struct Response[]","components":[{"name":"validator","type":"address","internalType":"address"},{"name":"result","type":"bytes","internalType":"bytes"},{"name":"status","type":"uint8","internalType":"enum ResponseStatus"},{"name":"receipt","type":"uint256","internalType":"uint256"},{"name":"timestamp","type":"uint256","internalType":"uint256"},{"name":"executionCost","type":"uint256","internalType":"uint256"}]},{"name":"status","type":"uint8","internalType":"enum ResponseStatus"},{"name":"","type":"tuple","internalType":"struct Request","components":[{"name":"id","type":"uint256","internalType":"uint256"},{"name":"requester","type":"address","internalType":"address"},{"name":"callbackAddress","type":"address","internalType":"address"},{"name":"callbackSelector","type":"bytes4","internalType":"bytes4"},{"name":"subcommittee","type":"address[]","internalType":"address[]"},{"name":"responses","type":"tuple[]","internalType":"struct Response[]","components":[{"name":"validator","type":"address","internalType":"address"},{"name":"result","type":"bytes","internalType":"bytes"},{"name":"status","type":"uint8","internalType":"enum ResponseStatus"},{"name":"receipt","type":"uint256","internalType":"uint256"},{"name":"timestamp","type":"uint256","internalType":"uint256"},{"name":"executionCost","type":"uint256","internalType":"uint256"}]},{"name":"responseCount","type":"uint256","internalType":"uint256"},{"name":"failureCount","type":"uint256","internalType":"uint256"},{"name":"threshold","type":"uint256","internalType":"uint256"},{"name":"createdAt","type":"uint256","internalType":"uint256"},{"name":"deadline","type":"uint256","internalType":"uint256"},{"name":"status","type":"uint8","internalType":"enum ResponseStatus"},{"name":"consensusType","type":"uint8","internalType":"enum ConsensusType"},{"name":"remainingBudget","type":"uint256","internalType":"uint256"},{"name":"perAgentBudget","type":"uint256","internalType":"uint256"}]}],"outputs":[],"stateMutability":"nonpayable"},{"type":"function","name":"noPool","inputs":[],"outputs":[{"name":"","type":"uint256","internalType":"uint256"}],"stateMutability":"view"},{"type":"function","name":"noStake","inputs":[{"name":"","type":"address","internalType":"address"}],"outputs":[{"name":"","type":"uint256","internalType":"uint256"}],"stateMutability":"view"},{"type":"function","name":"outcome","inputs":[],"outputs":[{"name":"","type":"uint8","internalType":"enum VerdictMarket.Outcome"}],"stateMutability":"view"},{"type":"function","name":"parseAgentId","inputs":[],"outputs":[{"name":"","type":"uint256","internalType":"uint256"}],"stateMutability":"view"},{"type":"function","name":"pendingRequests","inputs":[{"name":"","type":"uint256","internalType":"uint256"}],"outputs":[{"name":"","type":"bool","internalType":"bool"}],"stateMutability":"view"},{"type":"function","name":"platform","inputs":[],"outputs":[{"name":"","type":"address","internalType":"contract IAgentRequester"}],"stateMutability":"view"},{"type":"function","name":"poolAtResolution","inputs":[],"outputs":[{"name":"","type":"uint256","internalType":"uint256"}],"stateMutability":"view"},{"type":"function","name":"question","inputs":[],"outputs":[{"name":"","type":"string","internalType":"string"}],"stateMutability":"view"},{"type":"function","name":"requiredResolveDeposit","inputs":[],"outputs":[{"name":"","type":"uint256","internalType":"uint256"}],"stateMutability":"view"},{"type":"function","name":"resolve","inputs":[],"outputs":[{"name":"requestId","type":"uint256","internalType":"uint256"}],"stateMutability":"payable"},{"type":"function","name":"resolvePrompt","inputs":[],"outputs":[{"name":"","type":"string","internalType":"string"}],"stateMutability":"view"},{"type":"function","name":"sourceUrl","inputs":[],"outputs":[{"name":"","type":"string","internalType":"string"}],"stateMutability":"view"},{"type":"function","name":"stake","inputs":[{"name":"isYes","type":"bool","internalType":"bool"}],"outputs":[],"stateMutability":"payable"},{"type":"function","name":"state","inputs":[],"outputs":[{"name":"","type":"uint8","internalType":"enum VerdictMarket.MarketState"}],"stateMutability":"view"},{"type":"function","name":"totalNoStake","inputs":[],"outputs":[{"name":"","type":"uint256","internalType":"uint256"}],"stateMutability":"view"},{"type":"function","name":"totalPool","inputs":[],"outputs":[{"name":"","type":"uint256","internalType":"uint256"}],"stateMutability":"view"},{"type":"function","name":"totalYesStake","inputs":[],"outputs":[{"name":"","type":"uint256","internalType":"uint256"}],"stateMutability":"view"},{"type":"function","name":"winningStakeTotal","inputs":[],"outputs":[{"name":"","type":"uint256","internalType":"uint256"}],"stateMutability":"view"},{"type":"function","name":"yesPool","inputs":[],"outputs":[{"name":"","type":"uint256","internalType":"uint256"}],"stateMutability":"view"},{"type":"function","name":"yesStake","inputs":[{"name":"","type":"address","internalType":"address"}],"outputs":[{"name":"","type":"uint256","internalType":"uint256"}],"stateMutability":"view"},{"type":"event","name":"MarketResolved","inputs":[{"name":"outcome","type":"uint8","indexed":true,"internalType":"enum VerdictMarket.Outcome"},{"name":"reasoning","type":"string","indexed":false,"internalType":"string"}],"anonymous":false},{"type":"event","name":"Payout","inputs":[{"name":"user","type":"address","indexed":true,"internalType":"address"},{"name":"amount","type":"uint256","indexed":false,"internalType":"uint256"}],"anonymous":false},{"type":"event","name":"ResolveRequested","inputs":[{"name":"requestId","type":"uint256","indexed":true,"internalType":"uint256"}],"anonymous":false},{"type":"event","name":"Staked","inputs":[{"name":"user","type":"address","indexed":true,"internalType":"address"},{"name":"isYes","type":"bool","indexed":true,"internalType":"bool"},{"name":"amount","type":"uint256","indexed":false,"internalType":"uint256"}],"anonymous":false},{"type":"error","name":"AlreadyClaimed","inputs":[]},{"type":"error","name":"AlreadyResolved","inputs":[]},{"type":"error","name":"BeforeDeadline","inputs":[]},{"type":"error","name":"DeadlinePassed","inputs":[]},{"type":"error","name":"MarketNotOpen","inputs":[]},{"type":"error","name":"MarketResolving","inputs":[]},{"type":"error","name":"NotFactory","inputs":[]},{"type":"error","name":"NothingToClaim","inputs":[]},{"type":"error","name":"OnlyPlatform","inputs":[]},{"type":"error","name":"TransferFailed","inputs":[]},{"type":"error","name":"Underfunded","inputs":[]},{"type":"error","name":"UnknownRequest","inputs":[]},{"type":"error","name":"ZeroStake","inputs":[]}],"bytecode":{"object":"0x60e060405234801562000010575f80fd5b50604051620021e3380380620021e383398101604081905262000033916200018a565b6001600160a01b0388811660805260a088905286811660c052600480546001600160a01b0319169187169190911790555f620000708582620002ea565b5060016200007f8482620002ea565b5060026200008e8382620002ea565b5060035550506004805460ff60a01b1916905550620003b69350505050565b80516001600160a01b0381168114620000c4575f80fd5b919050565b634e487b7160e01b5f52604160045260245ffd5b5f82601f830112620000ed575f80fd5b81516001600160401b03808211156200010a576200010a620000c9565b604051601f8301601f19908116603f01168101908282118183101715620001355762000135620000c9565b816040528381526020925086602085880101111562000152575f80fd5b5f91505b8382101562000175578582018301518183018401529082019062000156565b5f602085830101528094505050505092915050565b5f805f805f805f80610100898b031215620001a3575f80fd5b620001ae89620000ad565b975060208901519650620001c560408a01620000ad565b9550620001d560608a01620000ad565b60808a01519095506001600160401b0380821115620001f2575f80fd5b620002008c838d01620000dd565b955060a08b015191508082111562000216575f80fd5b620002248c838d01620000dd565b945060c08b01519150808211156200023a575f80fd5b50620002498b828c01620000dd565b92505060e089015190509295985092959890939650565b600181811c908216806200027557607f821691505b6020821081036200029457634e487b7160e01b5f52602260045260245ffd5b50919050565b601f821115620002e557805f5260205f20601f840160051c81016020851015620002c15750805b601f840160051c820191505b81811015620002e2575f8155600101620002cd565b50505b505050565b81516001600160401b03811115620003065762000306620000c9565b6200031e8162000317845462000260565b846200029a565b602080601f83116001811462000354575f84156200033c5750858301515b5f19600386901b1c1916600185901b178555620003ae565b5f85815260208120601f198616915b82811015620003845788860151825594840194600190910190840162000363565b5085821015620003a257878501515f19600388901b60f8161c191681555b505060018460011b0185555b505050505050565b60805160a05160c051611de6620003fd5f395f6104f001525f81816102c2015261085e01525f81816103930152818161082f0152818161094401526110830152611de65ff3fe6080604052600436106101c8575f3560e01c806362445f13116100f2578063a627889e11610092578063c884ef8311610062578063c884ef8314610512578063cb1c2b5c14610540578063ccc827951461055a578063ecfb49a31461056f575f80fd5b8063a627889e14610489578063ad1bb8cf1461049d578063c19d93fb146104b2578063c45a0155146104df575f80fd5b80637fab9e46116100cd5780637fab9e461461042257806380bcaf581461043557806395e5dd0714610449578063a3b5afb114610474575f80fd5b806362445f13146103e45780636f1d4ea4146103f9578063762c3c541461040e575f80fd5b8063316fbb30116101685780634a0332a0116101385780634a0332a0146103575780634bde38c8146103825780634e71d92d146103b55780635cd8ca9c146103c9575f80fd5b8063316fbb30146102b1578063387e0801146102e45780633c652a9a146103055780633fad9ae014610343575f80fd5b806327793f87116101a357806327793f87146102535780632810e1d61461028057806329dcb0cf146102885780632fdefd311461029d575f80fd5b80630208d811146101d357806302d05d3f146101fb5780631509206614610232575f80fd5b366101cf57005b5f80fd5b3480156101de575f80fd5b506101e860085481565b6040519081526020015b60405180910390f35b348015610206575f80fd5b5060045461021a906001600160a01b031681565b6040516001600160a01b0390911681526020016101f2565b34801561023d575f80fd5b50610246610583565b6040516101f29190611359565b34801561025e575f80fd5b5060045461027390600160a81b900460ff1681565b6040516101f29190611386565b6101e861060f565b348015610293575f80fd5b506101e860035481565b3480156102a8575f80fd5b5061024661092c565b3480156102bc575f80fd5b506101e87f000000000000000000000000000000000000000000000000000000000000000081565b3480156102ef575f80fd5b506103036102fe366004611668565b610939565b005b348015610310575f80fd5b5061033361031f3660046117e5565b600f6020525f908152604090205460ff1681565b60405190151581526020016101f2565b34801561034e575f80fd5b50610246610c48565b348015610362575f80fd5b506101e86103713660046117fc565b600d6020525f908152604090205481565b34801561038d575f80fd5b5061021a7f000000000000000000000000000000000000000000000000000000000000000081565b3480156103c0575f80fd5b50610303610c54565b3480156103d4575f80fd5b506101e867016345785d8a000081565b3480156103ef575f80fd5b506101e8600b5481565b348015610404575f80fd5b506101e860065481565b348015610419575f80fd5b506101e8600381565b610303610430366004611815565b610ef7565b348015610440575f80fd5b506101e861106d565b348015610454575f80fd5b506101e86104633660046117fc565b600c6020525f908152604090205481565b34801561047f575f80fd5b506101e860075481565b348015610494575f80fd5b50610246611110565b3480156104a8575f80fd5b506101e8600a5481565b3480156104bd575f80fd5b506004546104d290600160a01b900460ff1681565b6040516101f29190611834565b3480156104ea575f80fd5b5061021a7f000000000000000000000000000000000000000000000000000000000000000081565b34801561051d575f80fd5b5061033361052c3660046117fc565b600e6020525f908152604090205460ff1681565b34801561054b575f80fd5b506101e866038d7ea4c6800081565b348015610565575f80fd5b506101e860095481565b34801561057a575f80fd5b506101e861111d565b6005805461059090611848565b80601f01602080910402602001604051908101604052809291908181526020018280546105bc90611848565b80156106075780601f106105de57610100808354040283529160200191610607565b820191905f5260205f20905b8154815290600101906020018083116105ea57829003601f168201915b505050505081565b5f80600454600160a01b900460ff16600281111561062f5761062f611372565b1461064d5760405163300b4e3360e21b815260040160405180910390fd5b60035442101561067057604051631bf5519360e01b815260040160405180910390fd5b6004805460ff60a01b1916600160a01b179055604080516003808252608082019092525f91602082015b606081526020019060019003908161069a5790505090506040518060400160405280600381526020016259455360e81b815250815f815181106106df576106df611880565b6020026020010181905250604051806040016040528060028152602001614e4f60f01b8152508160018151811061071857610718611880565b6020026020010181905250604051806040016040528060078152602001661253959053125160ca1b8152508160028151811061075657610756611880565b60200260200101819052505f806002604051602001610776929190611903565b60405160208183030381529060405290505f63bb2cde4660e01b838360015f60016040516024016107ab959493929190611a0a565b60408051601f198184030181529190526020810180516001600160e01b03166001600160e01b03199093169290921790915290505f6107e861106d565b90508034101561080b576040516370d4654f60e11b815260040160405180910390fd5b6010805460ff191660011790556040516345de5df160e11b81526001600160a01b037f00000000000000000000000000000000000000000000000000000000000000001690638bbcbbe2903490610893907f000000000000000000000000000000000000000000000000000000000000000090309063387e080160e01b908990600401611b0e565b60206040518083038185885af11580156108af573d5f803e3d5ffd5b50505050506040513d601f19601f820116820180604052508101906108d49190611b47565b6010805460ff199081169091555f828152600f60205260408082208054909316600117909255905191965086917fdfdd57544a98001855c9d3a6d9ce0e8bdc97706ab6544f2ac9bb432c61c3fae69190a25050505090565b6001805461059090611848565b336001600160a01b037f0000000000000000000000000000000000000000000000000000000000000000161461098257604051631ae8227960e11b815260040160405180910390fd5b60105460ff161580156109a357505f848152600f602052604090205460ff16155b156109c157604051636d08029760e01b815260040160405180910390fd5b5f848152600f60205260409020805460ff199081169091556010805490911690556001600454600160a01b900460ff166002811115610a0257610a02611372565b14610a20576040516371feffcd60e11b815260040160405180910390fd5b600754600654610a309190611b72565b600a556002826004811115610a4757610a47611372565b141580610a5357508251155b15610b02576004805460ff60a81b1916600360a81b17905560408051606081019091526021808252611d906020830139600590610a909082611bd1565b505f600b556004805460ff60a01b1916600160a11b1790819055600160a81b900460ff166003811115610ac557610ac5611372565b7f24682a824da4fe4f6c97224a20a0c07682d3ebde8fe8b5a983b86ba6877a74356005604051610af59190611c91565b60405180910390a2610c42565b5f835f81518110610b1557610b15611880565b602002602001015160200151806020019051810190610b349190611ca3565b90506005610b428282611bd1565b50610b4c8161112e565b6004805460ff60a81b1916600160a81b836003811115610b6e57610b6e611372565b02179055506001600454600160a81b900460ff166003811115610b9357610b93611372565b03610ba357600854600b55610bd8565b6002600454600160a81b900460ff166003811115610bc357610bc3611372565b03610bd357600954600b55610bd8565b5f600b555b6004805460ff60a01b1916600160a11b1790819055600160a81b900460ff166003811115610c0857610c08611372565b7f24682a824da4fe4f6c97224a20a0c07682d3ebde8fe8b5a983b86ba6877a74356005604051610c389190611c91565b60405180910390a2505b50505050565b5f805461059090611848565b6002600454600160a01b900460ff166002811115610c7457610c74611372565b14610c925760405163300b4e3360e21b815260040160405180910390fd5b335f908152600e602052604090205460ff1615610cc257604051630c8d9eab60e31b815260040160405180910390fd5b5f6003600454600160a81b900460ff166003811115610ce357610ce3611372565b1480610cef5750600b54155b15610d2057335f908152600d6020908152604080832054600c90925290912054610d199190611b72565b9050610e0a565b6001600454600160a81b900460ff166003811115610d4057610d40611372565b03610d9757335f908152600c602052604081205490819003610d75576040516312d37ee560e31b815260040160405180910390fd5b600b54600a54610d859083611d15565b610d8f9190611d2c565b915050610e0a565b6002600454600160a81b900460ff166003811115610db757610db7611372565b03610e0a57335f908152600d602052604081205490819003610dec576040516312d37ee560e31b815260040160405180910390fd5b600b54600a54610dfc9083611d15565b610e069190611d2c565b9150505b805f03610e2a576040516312d37ee560e31b815260040160405180910390fd5b335f818152600c60209081526040808320839055600d8252808320839055600e909152808220805460ff191660011790555190919083908381818185875af1925050503d805f8114610e97576040519150601f19603f3d011682016040523d82523d5f602084013e610e9c565b606091505b5050905080610ebe576040516312171d8360e31b815260040160405180910390fd5b60405182815233907f5afeca38b2064c23a692c4cf353015d80ab3ecc417b4f893f372690c11fbd9a69060200160405180910390a25050565b5f600454600160a01b900460ff166002811115610f1657610f16611372565b14610f345760405163300b4e3360e21b815260040160405180910390fd5b6003544210610f565760405163387b2e5560e11b815260040160405180910390fd5b66038d7ea4c68000341015610f7e5760405163150a67e960e01b815260040160405180910390fd5b8015610fdd57335f908152600c602052604081208054349290610fa2908490611b72565b925050819055503460085f828254610fba9190611b72565b925050819055503460065f828254610fd29190611b72565b909155506110319050565b335f908152600d602052604081208054349290610ffb908490611b72565b925050819055503460095f8282546110139190611b72565b925050819055503460075f82825461102b9190611b72565b90915550505b6040513481528115159033907f25018ce0ebce86bde75d91d70200992f99ea453578f49b0eef669201fe7b6e9e9060200160405180910390a350565b5f611081600367016345785d8a0000611d15565b7f00000000000000000000000000000000000000000000000000000000000000006001600160a01b0316631ffd62fa6040518163ffffffff1660e01b8152600401602060405180830381865afa1580156110dd573d5f803e3d5ffd5b505050506040513d601f19601f820116820180604052508101906111019190611b47565b61110b9190611b72565b905090565b6002805461059090611848565b5f60075460065461110b9190611b72565b5f8082905061115c81604051806040016040528060078152602001661253959053125160ca1b8152506111d8565b1561116a5750600392915050565b61118f816040518060400160405280600381526020016259455360e81b8152506111d8565b1561119d5750600192915050565b6111c181604051806040016040528060028152602001614e4f60f01b8152506111d8565b156111cf5750600292915050565b50600392915050565b80515f90829015806111eb575080518451105b156111f9575f9150506112b8565b5f5b815185516112099190611d4b565b81116112b25760015f5b835181101561128c5761124584828151811061123157611231611880565b01602001516001600160f81b0319166112be565b6001600160f81b03191661126d8861125d8487611b72565b8151811061123157611231611880565b6001600160f81b03191614611284575f915061128c565b600101611213565b50801561129f57600193505050506112b8565b50806112aa81611d5e565b9150506111fb565b505f9150505b92915050565b5f604160f81b6001600160f81b03198316108015906112eb5750602d60f91b6001600160f81b0319831611155b15611308576112ff60f883901c6020611d76565b60f81b92915050565b5090565b5f5b8381101561132657818101518382015260200161130e565b50505f910152565b5f815180845261134581602086016020860161130c565b601f01601f19169290920160200192915050565b602081525f61136b602083018461132e565b9392505050565b634e487b7160e01b5f52602160045260245ffd5b602081016004831061139a5761139a611372565b91905290565b634e487b7160e01b5f52604160045260245ffd5b60405160c0810167ffffffffffffffff811182821017156113d7576113d76113a0565b60405290565b6040516101e0810167ffffffffffffffff811182821017156113d7576113d76113a0565b604051601f8201601f1916810167ffffffffffffffff8111828210171561142a5761142a6113a0565b604052919050565b5f67ffffffffffffffff82111561144b5761144b6113a0565b5060051b60200190565b80356001600160a01b038116811461146b575f80fd5b919050565b5f67ffffffffffffffff821115611489576114896113a0565b50601f01601f191660200190565b80356005811061146b575f80fd5b5f82601f8301126114b4575f80fd5b813560206114c96114c483611432565b611401565b82815260059290921b840181019181810190868411156114e7575f80fd5b8286015b848110156115d557803567ffffffffffffffff8082111561150a575f80fd5b9088019060c0828b03601f1901811315611522575f80fd5b61152a6113b4565b611535888501611455565b815260408085013584811115611549575f80fd5b85019350603f84018d1361155b575f80fd5b8884013561156b6114c482611470565b8181528e8383880101111561157e575f80fd5b818387018c8301375f8b8383010152808b8501525050606093506115a3848601611497565b908201526080848101359382019390935260a080850135938201939093529201359082015283529183019183016114eb565b509695505050505050565b80356001600160e01b03198116811461146b575f80fd5b5f82601f830112611606575f80fd5b813560206116166114c483611432565b8083825260208201915060208460051b870101935086841115611637575f80fd5b602086015b848110156115d55761164d81611455565b835291830191830161163c565b80356002811061146b575f80fd5b5f805f806080858703121561167b575f80fd5b84359350602085013567ffffffffffffffff80821115611699575f80fd5b6116a5888389016114a5565b94506116b360408801611497565b935060608701359150808211156116c8575f80fd5b908601906101e082890312156116dc575f80fd5b6116e46113dd565b823581526116f460208401611455565b602082015261170560408401611455565b6040820152611716606084016115e0565b606082015260808301358281111561172c575f80fd5b6117388a8286016115f7565b60808301525060a08301358281111561174f575f80fd5b61175b8a8286016114a5565b60a08301525060c0838101359082015260e0808401359082015261010080840135908201526101208084013590820152610140808401359082015261016091506117a6828401611497565b8282015261018091506117ba82840161165a565b918101919091526101a082810135908201526101c09182013591810191909152939692955090935050565b5f602082840312156117f5575f80fd5b5035919050565b5f6020828403121561180c575f80fd5b61136b82611455565b5f60208284031215611825575f80fd5b8135801515811461136b575f80fd5b602081016003831061139a5761139a611372565b600181811c9082168061185c57607f821691505b60208210810361187a57634e487b7160e01b5f52602260045260245ffd5b50919050565b634e487b7160e01b5f52603260045260245ffd5b5f81546118a081611848565b600182811680156118b857600181146118cd576118f9565b60ff19841687528215158302870194506118f9565b855f526020805f205f5b858110156118f05781548a8201529084019082016118d7565b50505082870194505b5050505092915050565b69028bab2b9ba34b7b71d160b51b81525f611921600a830185611894565b72017102932b9b7b63aba34b7b710393ab6329d1606d1b81526119476013820185611894565b7f2e20416e7377657220776974682065786163746c79206f6e65206f663a2059458152712996102727961037b91024a72b20a624a21760711b602082015260320195945050505050565b5f815461199d81611848565b8085526020600183811680156119ba57600181146119d4576119ff565b60ff1985168884015283151560051b8801830195506119ff565b865f52825f205f5b858110156119f75781548a82018601529083019084016119dc565b890184019650505b505050505092915050565b60e08152600760e0820152666f7574636f6d6560c81b6101008201525f61012060208160208501526019828501527f4d61726b6574207265736f6c7574696f6e206f7574636f6d65000000000000006101408501526101609150818401826040860152809250895180825261018091508186019350818160051b870101915060208b015f5b82811015611abe5761017f19888503018652611aac84835161132e565b95850195935090840190600101611a8f565b5050508481036060860152611ad3818a61132e565b925050508281036080840152611ae98187611991565b915050611afa60a083018515159052565b60ff831660c08301525b9695505050505050565b8481526001600160a01b03841660208201526001600160e01b0319831660408201526080606082018190525f90611b049083018461132e565b5f60208284031215611b57575f80fd5b5051919050565b634e487b7160e01b5f52601160045260245ffd5b808201808211156112b8576112b8611b5e565b601f821115611bcc57805f5260205f20601f840160051c81016020851015611baa5750805b601f840160051c820191505b81811015611bc9575f8155600101611bb6565b50505b505050565b815167ffffffffffffffff811115611beb57611beb6113a0565b611bff81611bf98454611848565b84611b85565b602080601f831160018114611c32575f8415611c1b5750858301515b5f19600386901b1c1916600185901b178555611c89565b5f85815260208120601f198616915b82811015611c6057888601518255948401946001909101908401611c41565b5085821015611c7d57878501515f19600388901b60f8161c191681555b505060018460011b0185555b505050505050565b602081525f61136b6020830184611991565b5f60208284031215611cb3575f80fd5b815167ffffffffffffffff811115611cc9575f80fd5b8201601f81018413611cd9575f80fd5b8051611ce76114c482611470565b818152856020838501011115611cfb575f80fd5b611d0c82602083016020860161130c565b95945050505050565b80820281158282048414176112b8576112b8611b5e565b5f82611d4657634e487b7160e01b5f52601260045260245ffd5b500490565b818103818111156112b8576112b8611b5e565b5f60018201611d6f57611d6f611b5e565b5060010190565b60ff81811683821601908111156112b8576112b8611b5e56fe4167656e742072657175657374206661696c6564206f722074696d6564206f7574a2646970667358221220b4d0eb4ec56f4297019e421b6d014d770e9ad14de6a8a45d82cb7823dabef30d64736f6c63430008180033","linkReferences":{}},"methodIdentifiers":{"MIN_STAKE()":"cb1c2b5c","PARSE_COST_PER_AGENT()":"5cd8ca9c","SUBCOMMITTEE_SIZE()":"762c3c54","agentReasoning()":"15092066","claim()":"4e71d92d","claimed(address)":"c884ef83","creator()":"02d05d3f","deadline()":"29dcb0cf","factory()":"c45a0155","handleResponse(uint256,(address,bytes,uint8,uint256,uint256,uint256)[],uint8,(uint256,address,address,bytes4,address[],(address,bytes,uint8,uint256,uint256,uint256)[],uint256,uint256,uint256,uint256,uint256,uint8,uint8,uint256,uint256))":"387e0801","noPool()":"a3b5afb1","noStake(address)":"4a0332a0","outcome()":"27793f87","parseAgentId()":"316fbb30","pendingRequests(uint256)":"3c652a9a","platform()":"4bde38c8","poolAtResolution()":"ad1bb8cf","question()":"3fad9ae0","requiredResolveDeposit()":"80bcaf58","resolve()":"2810e1d6","resolvePrompt()":"a627889e","sourceUrl()":"2fdefd31","stake(bool)":"7fab9e46","state()":"c19d93fb","totalNoStake()":"ccc82795","totalPool()":"ecfb49a3","totalYesStake()":"0208d811","winningStakeTotal()":"62445f13","yesPool()":"6f1d4ea4","yesStake(address)":"95e5dd07"},"id":20}